:020000040800F2
:100000002838002099010008DB1E0008F1190008BB
:10001000D91E00087F020008D92500080000000052
:1000200000000000000000000000000001010008C6
:10003000810200080000000045010008B52000080A
:10004000B3010008B3010008B3010008B3010008C0
:10005000B3010008B3010008B3010008B3010008B0
:10006000B3010008B3010008B3010008B3010008A0
:10007000B3010008B3010008B3010008B301000890
:10008000B3010008B3010008B3010008B301000880
:10009000B3010008B3010008B3010008B301000870
:1000A000B3010008B3010008B3010008B301000860
:1000B000B3010008B301000841210008B3010008A2
:1000C000B3010008B3010008B3010008B301000840
:1000D000B3010008CD250008B3010008B3010008F2
:1000E000B3010008B3010008B3010008DFF80CD029
:1000F00000F088F8004800477926000828380020DA
:10010000224B19680868B0E8F00F80F30988BFF344
:100110006F8F4FF0000080F311884EF00D0E704786
:100120000000000006480068006880F3088862B696
:1001300061B6BFF34F8FBFF36F8F00DF00BF00BF0B
:1001400008ED00E0EFF30980BFF36F8F0F4B1A68E3
:1001500020E9F00F106008B54FF0500080F31188CF
:10016000BFF34F8FBFF36F8F03F0ECFC4FF0000035
:1001700080F31188BDE8084019680868B0E8F00FFE
:1001800080F30988BFF36F8F704700BF68180020A5
:10019000EFF3058070470000064880470648004797
:1001A000FEE7FEE7FEE7FEE7FEE7FEE7FEE7FEE727
:1001B000FEE7FEE73F210008ED00000840EA0103EA
:1001C0009B0703D009E008C9121F08C0042AFAD20D
:1001D00003E011F8013B00F8013B521EF9D27047D1
:1001E000D2B201E000F8012B491EFBD27047002279
:1001F000F6E710B513460A4604461946FFF7F0FF26
:10020000204610BD064C074D06E0E06840F00103B3
:1002100094E8070098471034AC42F6D3FFF76AFF22
:10022000144900083449000870B58C1810F8015BB7
:1002300015F0070301D110F8013B2A1106D110F87F
:10024000012B03E010F8016B01F8016B5B1EF9D183
:100250002B0705D40023521E0DD401F8013BFAE709
:1002600010F8013BCB1A921C03E013F8015B01F874
:10027000015B521EF9D5A142D8D3002070BDFEE724
:10028000704772B6FEE710B590F8211000220229DF
:1002900005D00421816380F82020012010BD016871
:1002A0000B6823F00E030B6001680B6823F0010359
:1002B0000B6090F84030C46B012101FA03F36360D6
:1002C00080F8211080F82020104610BD10B590F85D
:1002D00021100024022903D00421816301243DE080
:1002E00001680A6822F00E020A6001680A6822F0BA
:1002F00001020A601A4A0168914201D1012121E0FC
:10030000174A1432914201D110211BE0144A2832BD
:10031000914201D1891515E0114A3C32914201D137
:1003200089140FE00E4A5032914202D14FF48031CD
:1003300008E00B4A6432914202D14FF4801101E08F
:100340004FF08071064A083A5160012180F821106F
:10035000002180F82010416B01B18847204610BD74
:100360000800024070B5044600F0FEF80546601C27
:1003700002D004480078044400F0F6F8401BA04284
:10038000FAD370BD140000202DE9F84FDFF8B891C2
:10039000002409F1040A0AF1040B23460F270BF18C
:1003A000040EC9E00125A5402A40AA427DD1674E2E
:1003B000D1F804C0ACEB0608B44532D014DCBCF173
:1003C000030F3AD009DCBCF1000F2AD0BCF1010FB9
:1003D0001CD0BCF1020F31D11DE0BCF1110F17D0C0
:1003E000BCF1120F2AD119E0B8F5881F19D006DC2C
:1003F000B8F5803F15D0B8F5801F1FD111E0B8F5D2
:10040000001F0ED0B8F5041F18D10AE0CB6815E024
:10041000CB681B1D12E0CB6808330FE0CB680C33B0
:100420000CE08B682BB1012B4FF0080303D0456122
:1004300004E0042302E0056100E00023FF2A01D864
:10044000064601E000F104064FEA840501D9A5F152
:100450002005D6F8008007FA05FC28EA0C0803FA04
:1004600005F548EA0508C6F800804D68ED0062D53C
:10047000374DAE6946F00106AE61AD6924F0030662
:1004800005F001050095334D06EB050CDCF808502E
:10049000A607360F07FA06F825EA0805DFF8B88040
:1004A000404503D14FF0000817E044E0DFF8AC808E
:1004B000404502D14FF001080FE0DFF8A48040452D
:1004C00002D14FF0020808E0DFF89880404502D1E1
:1004D0004FF0030801E04FF0040808FA06F848EA74
:1004E0000508CCF808804D68D9F80060ED034D464A
:1004F00001D5164300E096432E604D68DAF800609F
:10050000AD03554601D5164300E096432E604D6875
:10051000DBF80060ED025D4601D5164300E096432E
:100520002E604D68DEF80060AD02754601D51643B9
:1005300000E096432E60641C0D682A46E5407FF477
:1005400031AFBDE8F88F0000000401400000111039
:10055000001002400000014000080140000C014072
:1005600000100140001401400148806870470000FD
:100570001400002070B5040025D094F83D0000253B
:1005800020B984F83C50204600F050F9242084F82B
:100590003D002068016821F00101016020680168C8
:1005A00041F4004101602068016821F400410160CC
:1005B00000F0D8FA4D4A6168914201D84C4900E0F8
:1005C0004C49884201D2012070BD4B492368B0FBE1
:1005D000F1F15E6826F03F060E435E606368934269
:1005E00006D94FF4967359434FF47A73B1FBF3F184
:1005F0002368491C1E6A26F03F0631431962616870
:10060000914210D84900401EB0FBF1F2521CC2F3D7
:100610000B02042A01D2042022E0B0FBF1F0401CBE
:10062000C0F30B001CE0A268F2B301EBC10303EBC3
:100630000116431EB3FBF6F35B1C43F480431B051A
:1006400049D092B301EBC10202EB0111401EB0FB95
:10065000F1F0401CC0F30B0040F4804040F4004037
:100660002168CA694CF6FF739A431043C861D4E904
:10067000071001432068026822F0C00211430160A4
:10068000D4E9030101432068826848F2FF339A43AA
:1006900011438160D4E9050108432168CA6822F04A
:1006A000FF021043C86001E00EE016E02068016818
:1006B00041F0010101602564202084F83D0025639C
:1006C00084F83E50002070BD01EB4106431EB3FB91
:1006D000F6F35B1CB3E70120C2E701EB4101401ECA
:1006E000B0FBF1F0401CC0F30B00B7E7A08601009F
:1006F00080841E0000093D0040420F002DE9FF4F9D
:1007000083B09A46DDE9119793460446DDF84080B0
:10071000FFF72AFF054694F83D0020287FD11923D2
:10072000012240492046009501F0F4F9002876D1D5
:1007300094F83C00012872D0012084F83C00206825
:100740000168C90703D1016841F001010160206817
:10075000016821F400610160212084F83D004020FF
:1007600084F83E0000262664C4F82480A4F82A9069
:10077000608D20852C48E062CDE9007553465A46CD
:100780002046049901F04CF970B930E02A46394608
:10079000204601F03EFA58B1206C042804D12068AC
:1007A000016841F400710160012007B0BDE8F08FDD
:1007B000606A216800780861606A401C6062218D6F
:1007C000491E89B22185628D521E62852268536955
:1007D000DB435B070BD469B100781061606A401C91
:1007E0006062208D401E2085608D401E6085208DBA
:1007F0000028CBD12A463946204601F065F9002869
:10080000CAD154F83D0B016841F400710160202009
:1008100004F81E09E67766770020C6E7FFE70220A6
:10082000C3E70000020010000000FFFF10B586B013
:100830000021009101910291039100680F498842C3
:100840001AD10F4CA06940F00800A061A069694668
:1008500000F008000490C0200090122001900320B6
:1008600003900848FFF790FDE06940F40010E06154
:10087000E06900F40010049006B010BD0054004080
:1008800000100240000C01400248816802781144C7
:100890008160704714000020074810B5016841F0DE
:1008A00010010160032000F095F8002000F006F828
:1008B00000F03EF8002010BD0020024000B50146C7
:1008C00087B000221E2000F065F81E2000F054F8CA
:1008D0001348C16941F00401C161C06905A900F074
:1008E00004000690684600F01DF900F03BF90D4940
:1008F0004000B0FBF1F10D480B4A491E0260416017
:1009000040F2E7320021C0E90321816000F046FB9C
:1009100010B1012007B000BD044800F07FFBF9E7EB
:100920000010024040420F0000080040081B002059
:100930000F4808B5816941F001018161816901F0C9
:1009400001010091C16941F08051C161C06900227B
:1009500000F0805000900F21901E00F01BF8054819
:10096000416821F0E06141F00071416008BD000084
:100970000010024000000140002809DB00F01F02C7
:10098000012191404009800000F1E020C0F80011F1
:1009900070470000F0B40E4B1B680C46C3F30223F3
:1009A000C3F10705042D00D90425191D072901D21B
:1009B000002300E0DB1E012606FA05F1491E214056
:1009C00099409E40761E16403143F0BC01F02ABE8D
:1009D0000CED00E0064900F0070208684FF6FF033F
:1009E000184040EA0220034A1043086070470000A4
:1009F0000CED00E00000FA052DE9F0470F46050078
:100A000061D0434E306800F00700B84209D2306828
:100A100020F0070038433060306800F00700B8422B
:100A200051D128683B4C810712D5400703D5606837
:100A300040F4E06060602878000703D5606840F407
:100A4000605060606068A96820F0F0000843606052
:100A50002878C00728D06868012810D021680228AB
:100A600010D0890700292EDA616821F003010143C3
:100A70006160FFF779FD804641F288390DE0216819
:100A80008903EFE78901EDE7FFF76EFDA0EB0801B1
:100A9000494502D90320BDE8F0876068696800F025
:100AA0000C00B0EB810FEFD1306800F00700B842C6
:100AB0000BD9306820F0070038433060306800F010
:100AC0000700B84201D00120E5E72878400705D5A6
:100AD0006068E96820F4E0600843606028780007F7
:100AE00006D56068296920F4605040EAC100606062
:100AF00000F058F86168084AC1F30311515CC8401E
:100B00000649086006480068FFF7D8FE0020C2E7E3
:100B10000020024000100240F048000820000020A1
:100B2000180000200F2202600C4A536803F00303F0
:100B30004360536803F0F0038360536803F4E06399
:100B4000C36052684FF4E06303EAD20202610448D2
:100B5000006800F0070008607047000000100240C5
:100B6000002002400448054900684968044AC1F36E
:100B70000221515CC8407047200000200010024054
:100B8000004900080448054900684968044AC1F35F
:100B9000C221515CC8407047200000200010024074
:100BA0000049000812A185B00FC98DE80F0014A0FC
:100BB000144A006804905168134801F00C03042B98
:100BC00010D0082B0ED1C1F38343C9031DF80300D5
:100BD0000AD5516804AAC1F34041515C0A4A504306
:100BE000B0FBF1F005B0704708494843FAE7000050
:100BF00002030405060708090A0B0C0D0E0F10105E
:100C0000010200000010024000127A0000093D00BD
:100C10002DE9F84F040070D02078C04DC00749D0AE
:100C20006868C0F38100012807D06868C0F38100BC
:100C3000022809D16868C00306D52868800339D521
:100C400060680028E7D035E06068B0F5803F0BD0E1
:100C500010B1B0F5A02F11D0286820F480302860A2
:100C6000286820F4802002E0286840F48030286062
:100C7000606890B1FFF778FC06460AE0286840F407
:100C800080202860F0E700BFFFF76EFC801B64281F
:100C900073D828688003F7D50CE0FFF765FC06469B
:100CA00005E000BFFFF760FC801B6428F0D82868CF
:100CB0008003F7D420789A4E80074FF001094FF057
:100CC000000839D5686810F00C0F07D06868C0F3C9
:100CD0008100022809D16868C00306D4286880070B
:100CE00014D52069012808D110E02069B0B1C6F8F8
:100CF0000090FFF739FC074605E00AE1FFF734FCF6
:100D0000C01B0228C4D828688007F7D52868616905
:100D100020F0F80040EAC10028600DE0C6F800802D
:100D2000FFF722FC074604E0FFF71EFCC01B022869
:100D300023D828688007F7D4207800072CD5794875
:100D4000A169D9B1C0F80090FFF70EFC074604E096
:100D5000FFF70AFCC01B02280FD8686A8007F7D586
:100D600071484FF4FA510068B0FBF1F0009000BFF9
:100D70000098411E0091FAD20EE080E0C0F8008099
:100D8000FFF7F2FB074604E0FFF7EEFBC01B02286B
:100D900075D8686A8007F7D42078400760D5E8697D
:100DA0000027C00008D4E86940F08050E861E86995
:100DB000012700F0805000905C480168C90513D4F9
:100DC0000168834641F480710160FFF7CDFB8246E4
:100DD00006E000BFFFF7C8FBA0EB0A0064284ED86E
:100DE000DBF80000C005F5D5E06801280AD008B19D
:100DF000052813D0286A20F001002862286A20F014
:100E0000040002E0286A40F001002862E06841F234
:100E1000883B98B1FFF7A8FB82460BE0286A40F0B8
:100E200004002862EEE700BFFFF79EFBA0EB0A017B
:100E300059455AD8286A8007F6D50CE0FFF794FB8D
:100E4000824605E0FFF790FBA0EB0A0159454CD81C
:100E5000286A8007F6D41FB1E86920F08050E86165
:100E6000E06988B36968C1F38101022944D002288E
:100E7000C6F8608004D0FFF777FB044638E034E022
:100E8000FFF772FB074604E0FFF76EFBC01B02286A
:100E90002BD828688001F7D4206AB0F5803F05D1AF
:100EA0006868A16820F4003008436860D4E908014C
:100EB0000843696821F4741108436860C6F86090BB
:100EC000FFF752FB044606E025E000BFFFF74CFBAE
:100ED000001B022809D828688001F7D51BE000BF55
:100EE000FFF742FB001B022802D90320BDE8F88F60
:100EF00028688001F4D40EE00128F7D06868226ADF
:100F000000F48031914204D1616A00F4701088428B
:100F100001D00120EAE70020E8E7000000100240CD
:100F20000000424280044242200000200070004045
:100F30007047704770B590F83C20012A26D00124F4
:100F400080F83C40022280F83D2003685A689D6882
:100F500022F070060A6832435A600D4B02689A42CA
:100F600008D0B2F1804F05D00A4B9A4202D00A4B0A
:100F70009A4204D1496825F080031943916080F8B2
:100F80003D40002180F83C10084670BD022070BD35
:100F9000002C0140000400400008004010B504008F
:100FA00003D094F83D0010B107E0012010BD0020EF
:100FB00084F83C00204600F01FF8022084F83D0031
:100FC000211D206801F0C2F8012084F8460084F851
:100FD0003E0084F83F0084F8400084F8410084F823
:100FE000420084F8430084F8440084F8450084F803
:100FF0003D00002010BD000008B50068B0F1804F32
:1010000008D10548C16941F00101C161C06900F022
:101010000100009008BD00000010024090F83D1053
:10102000012901D001207047022180F83D1001689C
:10103000CA6842F00102CA6000680B49884208D0C1
:10104000B0F1804F05D00949884202D00849884252
:1010500004D1816801F00701062903D0016841F03D
:101060000101016000207047002C01400004004095
:101070000008004070B5044690F83C00012817D0E5
:10108000012584F83C50022084F83D0020688268E5
:1010900022F0770222F47F4282600868502830D024
:1010A0000DDC20284DD005DC98B310283BD148E05A
:1010B000022070BD302844D0402834D139E0602867
:1010C00028D0702806D0B0F5805F2CD0B0F5005F36
:1010D00029D10AE0CB68D1E90121206801F079F833
:1010E0002068816841F0770109E0CB68D1E90121EE
:1010F000206801F06EF82068816841F480418160C9
:1011000011E0CA684968206801F018F95021206888
:1011100007E016E0CA684968206801F020F96021FC
:10112000206801F060F884F83D50002084F83C000D
:1011300070BDCA684968206801F000F94021206844
:10114000EFE7226801461046EBE7704770B50446AA
:10115000006801694FF00005C943890715D4C168CB
:10116000C943890711D4E91E016101202077206855
:1011700080698007204602D0FFF7E7FF04E000F017
:10118000EFF8204600F092F9257720680169C943FD
:10119000490717D4C168C943490713D46FF0040144
:1011A0000161022020772068806910F4407F20468A
:1011B00002D0FFF7CAFF04E000F0D2F8204600F0AA
:1011C00075F9257720680169C943090716D4C168F4
:1011D000C943090712D46FF0080101610420207788
:1011E0002068C0698007204602D0FFF7AEFF04E008
:1011F00000F0B6F8204600F059F92577206801691B
:10120000C943C90617D4C168C943C90613D46FF0CE
:1012100010010161082020772068C06910F4407F28
:10122000204602D0FFF791FF04E000F099F8204635
:1012300000F03CF9257720680169C943C90708D146
:10124000C168C943C90704D1891E0161204600F065
:101250007DF920680169C943090609D4C168C943F9
:10126000090605D46FF0800101612046FFF760FE9A
:1012700020680169C943490609D4C168C9434906C0
:1012800005D46FF040010161204600F069F9206843
:101290000169C94389060BD4C168C943890607D4CB
:1012A0006FF0200101612046BDE87040FFF741BEAC
:1012B00070BD000010B586B000210091019102912F
:1012C00003910268214902242148B2F1804F13D0D2
:1012D000204B9A420ED18A6942F004028A618969E0
:1012E000039401F0040104914021CDE90014694602
:1012F000FFF74AF806B010BD8A6942F004028A611D
:101300008A6902F0040204928A6942F008028A6142
:101310008969039401F0080104910321CDE90014C7
:101320006946FFF731F84FF44060CDE900046946A3
:1013300009480394FFF728F80848416821F44071F0
:1013400041F0E06141F400714160D3E700100240D8
:101350000008014000040040000C01400000014072
:10136000704770B5044690F83C000D4601280AD03D
:10137000012084F83C0042B1042A18D0082A2AD05F
:101380000C2A4DD139E0022070BD206800F034FFF6
:101390002068816941F0080181612068816921F03C
:1013A00004018161206881692A69114311E0206884
:1013B00000F04AFF2068816941F400618161206882
:1013C000816921F480618161206881692A6941EA2B
:1013D0000221816124E0206800F062FF2068C16979
:1013E00041F00801C1612068C16921F00401C161B7
:1013F0002068C1692A69114311E0206800F07CFF70
:101400002068C16941F40061C1612068C16921F4AB
:101410008061C1612068C1692A6941EA0221C16114
:10142000002084F83C0070BD10B5040003D094F88F
:101430003D0010B107E0012010BD002084F83C0001
:10144000204600F01FF8022084F83D00211D20688E
:1014500000F07CFE012084F8460084F83E0084F809
:101460003F0084F8400084F8410084F8420084F88A
:10147000430084F8440084F8450084F83D000020CF
:1014800010BD000008B500680649884208D106482A
:10149000C16941F00201C161C06900F00200009021
:1014A00008BD00000004004000100240704700002A
:1014B00010B50446022249B104290ED0082913D0E0
:1014C00094F84100012816D0012010BD94F83E0088
:1014D0000128F9D184F83E200FE094F83F0001285C
:1014E000F2D184F83F2008E094F840000128EBD1C5
:1014F00084F8402001E084F841200122206800F0B7
:101500005BFE0F492068884203D1426C42F40042DE
:1015100042642068884208D0B0F1804F05D0094964
:10152000884202D00849884204D1816801F007014D
:10153000062903D0016841F001010160002010BDBF
:10154000002C0140000400400008004000680349EE
:10155000884201D1FFF798B97047000000080040A9
:1015600070477047704710F83D1F40780843704738
:10157000F8B5026804461068D168536910F00F0F7F
:101580004FF0000554D003F0010601F49077374383
:101590005FD0C20705D0CA0503D5226C42F0010214
:1015A0002264420705D5DA0703D0226C42F002021A
:1015B0002264820705D5DA0703D0226C42F00402C8
:1015C0002264020707D501F02002324303D0226CC7
:1015D00042F008022264226C002A35D0800604D52D
:1015E000880602D5204600F0ECFE20684069216C98
:1015F000C0F3801001F008010143204625D000F01F
:10160000C8FE2068416949061BD5416921F04001A7
:101610004161A06BA8B158494163A06BFEF756FE2B
:10162000002811D0A06B416B01B0BDE8F040084725
:1016300083060ED58B060CD52046BDE8F84000F099
:10164000C0BE2046FFF78EFFF8BDFFF78BFF256475
:10165000F8BD266B2023012E52D1C60650D5CE06EA
:101660004ED5106850680090506940062AD5A16B8D
:10167000086840680004000CEAD0A68D8642E7D9CD
:10168000E0858869202818D0D06820F48070D06068
:101690002068416921F0010141612068416921F020
:1016A0004001416184F83E3025632068C16821F023
:1016B0001001C160A06BFEF7E6FDA08DE18D401A20
:1016C00081B219E0A08DE18D401A81B2E08D002831
:1016D000BED00029BCD0D06820F49070D0602068C3
:1016E000426922F00102426184F83E30256320689D
:1016F000C26822F01002C2602046FFF732FFF8BD38
:1017000005062BD50D0629D594F83D002128F6D1E4
:10171000A068B0F5805F01D12069B0B1206A411C9A
:101720002162216800784860E08C401E0004000CB3
:10173000E084E4D12068C16821F08001C1602068A4
:10174000C16841F04001C160F8BD206A0088C0F363
:1017500008005060206A801C2062E5E74006F3D54F
:101760004806F1D5D168204621F04001D16084F8C7
:101770003D3000F03CF9F8BD8323000870B504004B
:1017800004D094F83D00002510B106E0012070BDA2
:1017900084F83C50204600F023F8242084F83D00D3
:1017A0002068C16821F40051C160204600F064FE49
:1017B0002068016921F4904101612068416921F0AC
:1017C0002A0141612068C16841F40051C16025646B
:1017D000202084F83D0084F83E00002070BD000009
:1017E00030B585B0002400940194029403940068FD
:1017F000184988422CD11848816941F4804181619F
:10180000816901F480410491816941F004018161A1
:101810008069124D00F0040004904FF400700090B5
:10182000022001900320039069462846FEF7ACFD94
:101830002815CDE90004694628460294FEF7A4FD68
:10184000002205212520FFF7A5F82520FFF794F8B1
:1018500005B030BD003801400010024000080140D2
:1018600090F83E30202B0ED159B152B190F83C3057
:10187000012B08D0012380F83C300023036300F0E3
:1018800057BE012070470220704700002DE9F84341
:101890000026234F00966A463146386802F088FCDD
:1018A000204C4FF480794FF6FF782078FF280BD337
:1018B000267049461C48FEF79AFC43460A221BA1A3
:1018C0001D4800F03BF823E0174D61782954401C77
:1018D000C2B2A818227010F8011C0A2918D110F8F9
:1018E000020C0D2814D143462946134800F026F86F
:1018F0001148FFF738FE2128FAD06878A0702670CA
:1019000049460948FEF773FC6946386802F066FBF1
:1019100004490122491C0848FFF7A2FFBDE8F883EB
:101920000C00002000000020E0180020CAFDBEDDF1
:10193000D2E7B3F600000000C41A00202DE9F843F6
:10194000044690F83D001F4616460D4620284CD10F
:10195000C5B1BEB194F83C00012846D0012084F8FE
:101960003C004FF00008C4F84080212084F83D007E
:10197000FEF7FAFDA6848146E684A068B0F5805F94
:1019800003D004E00120BDE8F883206928B12E4689
:101990005FF0000584F83C800EE00026FAE7802125
:1019A000204600F0E0FDA0B9AEB116F8010B2168A9
:1019B0004860E08C401EE084E08C4B464FF0000213
:1019C00000970028EBD14FF04001204600F0CBFDFE
:1019D00030B10320D7E735F8020BC0F30800E6E783
:1019E000202084F83D000020CDE70220CBE770479F
:1019F000FEE701684A69D24352050FD46FF4806252
:101A00004A61002140F8301F20224273817302692D
:101A100042F0040202610173012070470020704708
:101A20002DE9F843044600680D46DDE90897016892
:101A30009846164641F4807101604B4600224FF0F3
:101A400001112046009700F065F848B12068006851
:101A5000C00502D54FF4007020640320BDE8F88370
:101A6000216805F0FE0008613B464A4615492046BC
:101A700000F084F888B920684169806900903A468E
:101A80004946204600F0C5F848B1206C042804D12E
:101A90002068016841F4007101600120DEE7F5B2C1
:101AA000B8F1010F09D02168300A08613A46494669
:101AB000204600F0AEF80028E7D12068056100203C
:101AC000CCE700000200010070B516460D46044642
:101AD0000DE02046FFF78DFF08B1012070BD681CA6
:101AE00005D0FEF741FD801BA84207D835B120681C
:101AF0004069C0434007ECD4002070BD002044F88A
:101B0000300F20216173A073216941F02001216110
:101B10002073E2E72DE9F0471E4690460D46044645
:101B2000C1F30747DDF8209008E0701C06D0FEF7EF
:101B30001BFDA0EB0900B0420FD876B12068012F41
:101B400018D0806925EA00000004000C14D00021A0
:101B50004145EAD00020BDE8F087002044F8300F6E
:101B600020216173A073216941F02001216120735C
:101B70000120F0E74069E5E70121E9E72DE9F047B9
:101B80009A4691460E46044600254FF02008C1F3C0
:101B9000074725E020684069C043400514D4206809
:101BA000016841F40071016021686FF48060486150
:101BB000256384F83D8084F83E50206C40F004009A
:101BC000206484F83C501FE0B9F1FF3F08D0FEF7D5
:101BD000CBFCA0EB0A0149450CD8B9F1000F09D0A4
:101BE0002068012F13D0806926EA00000004000C51
:101BF0000BD0CFE744F8305F84F80D80A5732069DF
:101C000040F02000206125730120BDE8F087406985
:101C1000EAE770B516460D4604460DE02046FFF78C
:101C2000E8FE08B1012070BD681C05D0FEF79CFCE1
:101C3000801BA84207D835B120684069C043000620
:101C4000ECD4002070BD002044F8300F20216173D7
:101C5000A073216941F0200121612073E2E70000B7
:101C60007FB50121084601F0F3FF0F4C0F4A002118
:101C7000A0600F4801F084F8E06002A82025CDE9BB
:101C80000050002380220BA10E4802F0D5FB2060FB
:101C900003A8CDE90050002380220BA10D4802F0DB
:101CA000CBFB60607FBD000004000020CC48000832
:101CB000692000086F6C65645F636F6E7472616C9D
:101CC000000000003D2C000870776D5F636F6E743C
:101CD00072616C0059360008114808B5816941F0FD
:101CE00010018161816901F010010091816941F069
:101CF00020018161816901F020010091816941F039
:101D000004018161816901F004010091816941F060
:101D100008018161806900F00800009008BD0000A2
:101D2000001002400D4810B50B4901600C4941609C
:101D300000214FF480428160C0E90312416181615A
:101D4000C1610162FEF716FC002803D0BDE8104017
:101D5000FEF797BA10BD000000540040E0190020C3
:101D6000A086010010B58EB0002407940894099451
:101D70000A940B941C2168460C94FEF738FA2A4802
:101D80004FF0804101604721C0E9011444F61F6112
:101D9000C0E9031480218161FFF700F908B1FEF763
:101DA00070FA4FF48050079007A91F48FFF762F9B7
:101DB00008B1FEF766FA1C48FFF736FB08B1FEF7DC
:101DC00060FA0B940BA918480C94FFF7B3F808B10C
:101DD000FEF757FA6020CDE900040294002269461C
:101DE00011480494FFF7BDFA08B1FEF74AFA04223D
:101DF00069460D48FFF7B5FA08B1FEF742FA082226
:101E000069460948FFF7ADFA08B1FEF73AFA0C2225
:101E100069460548FFF7A5FA08B1FEF732FA02480D
:101E2000FFF748FA0EB010BD341A002010B58AB082
:101E3000002407941C2168460894FEF7D8F9174837
:101E4000154901604721C0E9011440F2F311C0E9CE
:101E500003148461FFF7E8FA08B1FEF712FA079459
:101E600007A90E480894FFF765F808B1FEF709FACC
:101E70006020CDE90004022002900022694604940B
:101E80000648FFF76EFA08B1FEF7FBF90348FFF7C3
:101E900011FA0AB010BD0000000400407C1A0020B6
:101EA0000C4810B50A4901604FF4E131416000214E
:101EB00081600C22C160C0E904128161C161FFF739
:101EC0005DFC002803D0BDE81040FEF7DAB910BD74
:101ED00000380140C41A0020FEE7FEE770B5064650
:101EE0005FF0000404F1B000C0B200F077FB002006
:101EF00000F074FB102000F071FB0025304600F06C
:101F00007FFB6D1CEDB2802DF8D3641CE4B2082C6D
:101F1000E8D370BD10B56420FEF724FAAE2000F0BF
:101F20005DFB202000F05AFB102000F057FBB02092
:101F300000F054FBC82000F051FB002000F04EFBE5
:101F4000102000F04BFB402000F048FB812000F007
:101F500045FBFF2000F042FBA12000F03FFBA62044
:101F600000F03CFBA82000F039FB3F2000F036FBDE
:101F7000A42000F033FBD32000F030FB002000F061
:101F80002DFBD52000F02AFBF02000F027FBD92004
:101F900000F024FB222000F021FBDA2000F01EFBE1
:101FA000122000F01BFBDB2000F018FB202000F0CB
:101FB00015FB8D2000F012FB142000F00FFBBDE894
:101FC0001040AF2000F00ABB10B50446B031C8B2D3
:101FD00000F004FB102040EA141000F0FFFA04F0B7
:101FE0000F00BDE8104040F0010000F0F7BA2DE905
:101FF000F04798461746824600260C46DDF82090AA
:1020000010E021465046FFF7DFFF554606E019F87D
:102010000600761C00F0F4FA6D1CEDB2BD42F6D35A
:10202000641CE4B24445ECD3BDE8F08710B55A20F7
:1020300000F017FB0B4A116848635A2000F011FBAF
:10204000116888635A2000F00CFB1168C8635A209D
:1020500000F007FB11680864BDE81040642001F03F
:1020600075BC0000341A0020114C4FF47A755A20C8
:1020700000F0F7FA21684863284600F02BFE87201D
:1020800000F0EFFA21684863284600F023FE5A204A
:1020900000F0E7FA21684863284600F01BFE2D2077
:1020A00000F0DFFA21684863284600F013FEDEE7FF
:1020B000341A002010B5502080F31188BFF34F8FE1
:1020C000BFF36F8F02F024FA18B104494FF080502B
:1020D0000860002080F3118810BD000004ED00E0CE
:1020E00030B58FB028216846FEF781F814210AA880
:1020F000FEF77DF801210804CDE9001000240294C8
:1021000002250491CDE907504FF4E010099068468C
:10211000FEF77EFD08B172B6FEE70F20CDE90A0595
:102120004FF48060CDE90C4002210AA80E94FEF71E
:1021300063FC002801D072B6FEE70FB030BD7047D7
:102140000148FFF703B80000081B0020F0B5026843
:10215000164B174C174D4FF08047984205D0B842A8
:1021600003D0A04201D0A84203D122F070064A68F1
:102170003243984205D0B84203D0A04201D0A842D1
:1021800003D122F44074CA6822434C6922F08002D1
:10219000224302608A68C2620A688262984201D160
:1021A0000969016301214161F0BD0000002C01407B
:1021B000000400400008004010B501F01F03012199
:1021C000046A99408C430462016A9A401143016297
:1021D00010BD10B5846842EA032224F47F440A4308
:1021E0002243826010BD826822F070020A4342F0EE
:1021F000070181607047000030B5026A22F00102D9
:102200000262026A4368846924F073050C682C43F7
:1022100022F002058A682A430A4DA8420BD122F017
:102220000805CA6823F440732A434D6922F004026A
:102230001D438B692B43436084614968416302629B
:1022400030BD0000002C014030B5026A22F01002BF
:102250000262026A436884690D6824F4E64444EA31
:1022600005248D6822F0200242EA05120B4DA84297
:102270000ED1CD6822F0800242EA05124D6923F4A6
:10228000406343EA85038D6922F0400243EA8503F7
:102290004360846149688163026230BD002C014063
:1022A00030B5026A22F480720262036A4268C4692D
:1022B00023F4007324F073050C682C438D6843EA03
:1022C00005230C4DA8420ED1CD6823F4006343EAE8
:1022D00005234D6922F4405242EA05128D6923F428
:1022E000806342EA05124260C4614968C1630362C7
:1022F00030BD0000002C014030B5026A22F480524B
:102300000262046A4268C3690D6823F4E64343EA43
:1023100005238D6824F4005444EA0534064DA84290
:1023200004D14D6922F4804242EA85124260C361C1
:1023300049680164046230BD002C014010B5036A95
:10234000046A24F001040462846924F0F00444EA7D
:10235000021423F00A020A438461026210BD10B520
:10236000036A23F0100303628369046A23F4704351
:1023700043EA023224F0A00343EA011182610162C0
:1023800010BD10B5406A0021C185C184FFF7EAF88D
:1023900010BD0168CA6822F49072CA6001684A6977
:1023A00022F001024A61016B012904D10168CA6867
:1023B00022F01002CA60202180F83E100021016343
:1023C000704708B590F83E10222901D0022008BDC0
:1023D00082684FF480539A4201D1016921B1816A28
:1023E0009A421BD04AB10AE00268816A5268C2F37D
:1023F00008020A80816A891C08E0026972B10268D9
:10240000526802F07F020A70816A491C8162C18DA4
:10241000491E0904090CC18503D019E002685268FD
:10242000F1E70168CA6822F02002CA600168CA6840
:1024300022F48072CA6001684A6922F001024A618E
:10244000202180F83E10016B012903D0FFF71EFA0E
:10245000002008BD002101630168CA6822F0100253
:10246000CA6001680A68D20602D50A684968009104
:10247000818DFFF776F8EBE770B5044600680169D7
:10248000E26821F44051114301612169A0680843C9
:10249000616908432168CA6841F20C639A430243A8
:1024A000CA6020684169A26921F440711143416109
:1024B0001E492068884202D1FEF764FB01E0FEF766
:1024C00051FB00EBC00101EB001260686421800049
:1024D000B2FBF0F3B3FBF1F36FF018067343B2FBFA
:1024E000F0F5B2FBF0F605EB8305322303EB05159F
:1024F000B5FBF1F5B6FBF1F605F0F00505EB0615B9
:10250000B2FBF0F6B2FBF0F0B0FBF1F06FF01802A6
:10251000504306EB800003EB0010B0FBF1F02168A4
:1025200000F00F002844886070BD000000380140B2
:1025300081628285C28500210164222280F83E20CA
:1025400080F83C100168CA6842F48072CA60016871
:102550004A6942F001024A610068C16841F0200105
:10256000C160002070472DE9F041984617460E469D
:102570000446069D1DE0681C1BD02DB1FDF7F4FF3D
:10258000A0EB0800A84214D92068C16821F4D071DA
:10259000C1602068416921F001014161202084F877
:1025A0003D0084F83E00002084F83C000320BDE894
:1025B000F0812068006836EA000004D00020B842AC
:1025C000D9D00020F3E70120F9E700000148FEF729
:1025D000CFBF0000C41A0020FEE7000001B584B0A0
:1025E00001214FF47A7204A88DE807000B460022FF
:1025F00078210248FEF782F805B000BDE0190020FE
:1026000001B584B001214FF47A7204A88DE8070067
:102610000B46402278210248FEF770F805B000BD55
:10262000E01900200907090E002804DB00F1E02072
:1026300080F80014704700F00F0000F1E02080F8EF
:10264000141D704702E008C8121F08C1002AFAD101
:1026500070477047002001E001C1121F002AFBD122
:1026600070474FF4FA614843B421B0FBF1F000F534
:10267000FA7080B27047000008B5FEF70DF9FFF759
:102680002FFDFFF729FBFFF76DFBFFF709FCFFF7B5
:10269000CDFBFFF747FBFFF73DFC4FF4FA64204604
:1026A000FDF760FEFF20FFF719FC2046FDF75AFEFC
:1026B0000020FFF713FC2046FDF754FE00211548CB
:1026C000FEF7F6FE04211348FEF7F2FE082111483A
:1026D000FEF7EEFE0C210F48FEF7EAFE0E48002141
:1026E0000090082380220846FFF781FC4FF6FF7315
:1026F00003220AA10A48FFF721F9012209490848E3
:10270000FFF7AEF800F000FBFFF7AAFA00F018FBA5
:10271000FEE70000341A0020650400205A5A5800D1
:10272000C41A0020E018002010B52D20FFF799FFF3
:10273000334C216848638720FFF793FF21680864C2
:10274000962001F003F98720FFF78BFF216888634B
:102750002D20FFF786FF2168C863962001F0F6F868
:102760005A20FFF77EFF216848635A20FFF779FF60
:1027700021680864962001F0E9F85A20FFF771FFFC
:10278000216888635A20FFF76CFF2168C863962090
:1027900001F0DCF82D20FFF764FF216888638720B3
:1027A000FFF75FFF2168C863962001F0CFF887200C
:1027B000FFF757FF216848632D20FFF752FF21687C
:1027C0000864962001F0C2F85A20FFF74AFF2168FA
:1027D00088635A20FFF745FF2168C863962001F0FF
:1027E000B5F85A20FFF73DFF216848635A20FFF7EC
:1027F00038FF21680864BDE81040962001F0A6B8B3
:10280000341A002010B58720FFF72BFF334C2168C6
:1028100048632D20FFF725FF21680864962001F00A
:1028200095F82D20FFF71DFF216888638720FFF7AB
:1028300018FF2168C863962001F088F85A20FFF736
:1028400010FF216848635A20FFF70BFF21680864D6
:10285000962001F07BF85A20FFF703FF2168886378
:102860005A20FFF7FEFE2168C863962001F06EF83B
:102870008720FFF7F6FE216888632D20FFF7F1FE21
:102880002168C863962001F061F82D20FFF7E9FE6A
:10289000216848638720FFF7E4FE216808649620DA
:1028A00001F054F85A20FFF7DCFE216888635A20B3
:1028B000FFF7D7FE2168C863962001F047F85A2039
:1028C000FFF7CFFE216848635A20FFF7CAFE216850
:1028D0000864BDE81040962001F038B8341A002092
:1028E00010B58720FFF7BDFE194C2168886387204B
:1028F000FFF7B7FE2168C863962001F027F82D2066
:10290000FFF7AFFE216848632D20FFF7AAFE21687C
:102910000864962001F01AF85A20FFF7A2FE2168F9
:1029200088635A20FFF79DFE2168C863962001F056
:102930000DF85A20FFF795FE216848635A20FFF7EB
:1029400090FE21680864BDE81040962000F0FEBFAC
:10295000341A002010B52D20FFF783FE194C216892
:1029600048632D20FFF77DFE21680864962000F063
:10297000EDFF8720FFF775FE216888638720FFF74A
:1029800070FE2168C863962000F0E0FF5A20FFF730
:1029900068FE216848635A20FFF763FE21680864D7
:1029A000962000F0D3FF5A20FFF75BFE2168886372
:1029B0005A20FFF756FE2168C863BDE810409620F4
:1029C00000F0C4BF341A002070B5A020FFF749FE04
:1029D0004FF08046F16B214D88421CD91420FFF73F
:1029E00040FE716B884216D25FF00004C4F15A00B9
:1029F000C0B2FFF736FE2968486304F15A00C0B23E
:102A0000FFF72FFE2968C863042000F09FFF641CB5
:102A1000E4B24B2CEAD3A020FFF723FEB16B88422F
:102A20001BD91420FFF71DFE316C884215D20024FB
:102A300004F15A00C0B2FFF714FE29688863C4F19C
:102A40005A00C0B2FFF70DFE29680864042000F0A8
:102A50007DFF641CE4B24B2CEAD370BD341A002015
:102A600070B55A20FFF7FDFD594C216848635A2084
:102A7000FFF7F7FD216888635A20FFF7F2FD216810
:102A8000C8635A20FFF7EDFD216808649B20FFF71B
:102A9000E8FD4FF08042516B88427DD91920FFF745
:102AA000E0FDD16B884277D25FF0000505F15A0056
:102AB000C0B2FFF7D6FD21684863C5F15A00C0B225
:102AC000FFF7CFFD2168C863042000F03FFF6D1CB5
:102AD000EDB2462DEAD34FF47A76304600F036FF59
:102AE0005FF00005C5F1A000C0B2FFF7BAFD216894
:102AF000486305F11400C0B2FFF7B3FD2168C86355
:102B0000042000F023FF6D1CEDB2462DEAD3002512
:102B100005F15A00C0B2FFF7A4FD21688863C5F132
:102B20005A00C0B2FFF79DFD21680864042000F040
:102B30000DFF6D1CEDB2412DEAD30025C5F15A0001
:102B4000C0B2FFF78EFD2168486305F15A00C0B29C
:102B5000FFF787FD2168C863042000F0F7FE6D1CB5
:102B6000EDB2142DEAD3304600F0F0FE8C20FFF7D2
:102B700078FD21684863304600F0E8FEB220FFF798
:102B800070FD216848634FF4FA75284600F0DEFEB8
:102B90008C20FFF766FD00E019E0216848632846B5
:102BA00000F0D4FEB220FFF75CFD216848632846A0
:102BB00000F0CCFE8C20FFF754FD216848632846C6
:102BC00000F0C4FE4620FFF74CFD2168486370BD4D
:102BD000341A002010B58220FFF743FD164C2168FF
:102BE00048638220FFF73DFD216888633220FFF7AC
:102BF00038FD2168C8633220FFF733FD216808647F
:102C0000FA2000F0A3FE3220FFF72BFD2168486375
:102C10003220FFF726FD216888638220FFF721FD1F
:102C20002168C8638220FFF71CFD21680864BDE8A5
:102C30001040FA2000F08ABE341A002008B51D4F5B
:102C40001D4C1E4E1E4D207831788842FBD04FF02F
:102C5000FF31286801F0FAFA30784138082811D29B
:102C6000DFE800F00426081C1E202326FF20FFF7C3
:102C700035F907E0134819E00021082380220846AF
:102C8000FFF7B5F93078002320701A4619462868F6
:102C900001F096F80A2000F059FED4E70A4805E052
:102CA0000A4803E00448413000E009480090E3E7A7
:102CB0000097E1E7651000202400002002000020BA
:102CC0000C00002065140020650400206508002029
:102CD000650C002010B5EFF3058149B9EFF31081C1
:102CE00031B908490968022905D1EFF3118111B101
:102CF0006FF0050403E0002408B100F027FE204631
:102D000010BD0000B8180020EFF3058058B9EFF3AC
:102D1000108040B909490868022801D030B109E0A3
:102D2000EFF3118030B16FF00500704701200860AB
:102D3000002070474FF0FF3070470000B8180020A7
:102D400010B5EFF3058060B9EFF3108048B90B4977
:102D50000868022802D0012806D00BE0EFF31180AA
:102D600040B16FF0050010BD0220086000F09EFE2B
:102D7000002010BD4FF0FF3010BD0000B81800203B
:102D8000F0B585B00B464FF00004EFF305810394D6
:102D9000A1BBEFF3108189BB21490968022902D147
:102DA000EFF3118151BB48B3802618218DF81040F4
:102DB00004AD42B3176807B13D4697691FB1394664
:102DC0007F1E382F02D21779FF0702D0002005B0EE
:102DD000F0BD576907B1BE08D2F808C0BCF1000FBA
:102DE0000DD0D4685C2C18D312693AB137B18DE894
:102DF00006103246294601F04CFB03900DE0D768DF
:102E00005FB912694AB903AACDE90012B2B22946E4
:102E100001F012FB012800D003940398D7E70000CB
:102E2000B81800202DE9F041134C0F46054666699D
:102E30002068001D00F05AFC681C07D137B12168DA
:102E4000BDE8F0410D48091D00F0A0BC20683544E4
:102E5000B5424560216805D2A068BDE8F041091D72
:102E600000F07CBC6068091D00F078FC206B854296
:102E700000D22563BDE8F0816818002040200020C2
:102E80002DE9F041054600F08DFC2D4C2069401CD9
:102E9000206120682B4F10B1E06930B32BE0256032
:102EA0002069012827D1002606EB860007EB800069
:102EB00000F046FC761C382EF6D3234800F040FC88
:102EC0002148143000F03CFC1F48283000F038FC4A
:102ED0001D483C3000F034FC1B48503000F030FC02
:102EE000194860601430A06005E02068E96AC06A93
:102EF000884200D82560E06A401CE0626864E86AA5
:102F0000A169884200D9A06100EB800007EB800036
:102F1000291D00F03BFC00F065FCE06900280CD0A6
:102F20002068E96AC06A884207D208494FF0805099
:102F30000860BFF34F8FBFF36F8FBDE8F0810000D3
:102F400068180020901B0020F01F002004ED00E016
:102F500038B500F027FC104CA068C8B90F4800F045
:102F6000EFFB0E48143000F0EBFB0C4820601430EF
:102F700060600A4B00202833009003F150021021BA
:102F80000A2000F0A6FEA06010B105A100F0A8FC88
:102F9000BDE8384000F026BCA418002054200020D2
:102FA000546D72510000000030B4026C0B46002AD0
:102FB0000BD0C1681144C1604468A14201D30168CB
:102FC000C16030BC1846FDF7F9B830BC70472DE938
:102FD000F041856B174604460026026C82B1C7B1EA
:102FE000E068FDF7EBF8E168206C091AE1602268FF
:102FF000914202D26168081AE060022F16D017E0F1
:103000002068A8B9606801F0E7FA06460020606011
:103010000EE0A068FDF7D2F8216CA0680844A0601B
:103020006168884204D32068A06001E005B16D1E8C
:103030006D1CA5633046BDE8F08110B5044690F8DC
:10304000590058B101280CD002280FD0502080F32D
:103050001188BFF34F8FBFF36F8FFEE7206B00F037
:10306000D5FB2046BDE8104000F0D0BB10BD0000ED
:1030700010484FF44061420706D0C01D0D4920F0B2
:103080000700411AC1F540610B4A00230144C2E91F
:1030900000030839103A21F0070111604B600B6002
:1030A0000B1AC0E9001393604FF000405360D060EA
:1030B0007047000024280020CC180020144E154C26
:1030C000A6F29C474FF08058DFF84C9012E000BF0A
:1030D00000F068FBF068C568281D00F007FB206958
:1030E000401E2061E068401EE06000F07BFB284647
:1030F000FFF7A3FFE0680028EAD138680128F9D972
:10310000C9F80080BFF34F8FBFF36F8FF2E7000065
:103110002C2000206818002004ED00E070B51D464A
:10312000049C51B1C4F80020C4E90F0101212046DC
:1031300000F002FE84F84C5070BD2460F4E72DE9E5
:10314000F0470E46DDE9098417468246910099460C
:10315000089DA522206BFDF743F86FF00301206B5B
:1031600001EB8701084420F00707780707D05020BB
:1031700080F31188BFF34F8FBFF36F8FFEE72218E4
:10318000315C82F83410315C11B1401C1028F6D348
:10319000002684F84360382D00D33725E562C4E962
:1031A0001356201D00F0D7FA04F1180000F0D3FAEE
:1031B0002461C5F138006462A061666584F85860D6
:1031C0004A465146384600F07FFA2060B8F1000FB9
:1031D00001D0C8F80040BDE8F087000030B51149C3
:1031E00000E011460A688242FBD34B685C188442B7
:1031F00003D1406818444860084643681C1894424C
:1032000009D1084C103C2468A24209D052681A44E3
:1032100042600A6812680260814200D0086030BDD6
:103220000460F9E7CC18002070B5002441600B4D14
:103230000061914206D8D11A8269914206D2011DDD
:10324000686807E09A4203D2994201D3012403E05F
:10325000011D286800F082FA204670BDA4180020E5
:1032600010B5044600F09EFAA06B28B15FF0000490
:1032700000F0B8FA204610BD0124F9E730B589B056
:10328000304D55E00498002806DADDE90601059A7C
:103290009047049800284BDB069C606910B1201D04
:1032A00000F024FA02A800F0B9F8024604980A28AF
:1032B0003ED2DFE800F00505053D263705053D2631
:1032C0000598A169034601442046FFF7ADFF00B30E
:1032D000616A20468847E069012829D100200090D2
:1032E0000598A169002342181946204601F0BAFA50
:1032F00078B9502080F31188BFF34F8FBFF36F8FE1
:10330000FEE70598A06128B1811813462046FFF713
:103310008BFF0DE0502080F31188BFF34F8FBFF378
:103320006F8FFEE794F82C0010B9204600F06EFA7B
:10333000002204A9A86800F09FFE0028A2D109B0CD
:1033400030BD0000A41800202DE9FC410F460546C1
:1033500000F0F0FB01A800F061F80446019818B1F4
:1033600001F0EEF9BDE8FC81224EAFB17068006853
:10337000A8B30027291B3A46B06800F0C5FA01F04F
:10338000DFF90028EED11C494FF080500860BFF3F0
:103390004F8FBFF36F8FE5E7A542EBD801F0D0F96F
:1033A00030682746C068C468201D00F09FF9E069B6
:1033B000012810D1A0692B4641193A462046FFF753
:1033C00033FF40B100200346014600902A462046C4
:1033D00001F048FA20B1616A20468847C2E707E059
:1033E000502080F31188BFF34F8FBFF36F8FFEE73C
:1033F0000127BFE7A418002004ED00E0064841685B
:10340000096829B14168C968C9684968016370479A
:103410004FF0FF31FAE700006818002070B505464C
:1034200001F070F8064E04463069844203D200F081
:1034300009F8012000E0002028602046346170BDBA
:10344000A4180020F8B5194D1FE0C068C4680668CC
:10345000201D00F04BF9616A20468847E069012889
:1034600013D1A0693044B04206D924616060211DA7
:10347000286800F073F908E0002003460146009038
:103480003246204601F0EEF938B12868016800297B
:10349000DBD16968C5E90010F8BD502080F31188C0
:1034A000BFF34F8FBFF36F8FFEE70000A41800201B
:1034B00008484068401C4FF0500080F3118804D049
:1034C000BFF34F8FBFF36F8FFEE7BFF34F8FBFF395
:1034D0006F8FFEE7D4180020074C2068016841B1C7
:1034E000C0680021D0F80000FFF72EFFFFF7C6FEEE
:1034F000F3E701210020F7E7A41800202DE9F041AF
:10350000044600F04FF994F9455004F1240609E00F
:10351000606A48B1304601F0DBF808B100F044FAC7
:103520006D1E6DB2002DF3DC4FF0FF3684F8456060
:1035300000F058F900F036F994F9445004F11007FE
:1035400009E0206948B1384601F0C2F808B100F03E
:103550002BFA6D1E6DB2002DF3DC84F84460BDE8DB
:10356000F04100F03FB900002DE9F0410546002789
:1035700000F0E0FA314E306808B9FFF779FDF068E5
:1035800005424BD1C5B3083568070ED005F00700DA
:10359000C0F108000544680707D0502080F3118867
:1035A000BFF34F8FBFF36F8FFEE72DB37068854277
:1035B00034D82248103001460C6801E020460C4601
:1035C0006168A94202D221680029F7D131688C4292
:1035D00024D007682168016060680837411B102902
:1035E0000FD96019420708D0502080F31188BFF32B
:1035F0004F8FBFF36F8FFEE710E041606560FFF70C
:10360000EDFD61687068401A7060B268904200D247
:10361000B060F06801430020C4E9000101F090F8B7
:10362000780707D0502080F31188BFF34F8FBFF386
:103630006F8FFEE73846BDE8F0810000BC1800201F
:103640000449086818B10868026D521C02650868D0
:103650007047000068180020194D1A4C4FF0FF36D3
:103660003146206800F0F2FD2878413808281CD245
:10367000DFE800F004070A0D10131619FFF7AAFA85
:1036800013E0FFF7EDF910E0FFF79EF90DE0FFF70B
:10369000B9F80AE0FFF724F907E0FEF7C7FC04E0F9
:1036A000FFF758F901E0FFF73FF800231A461946E3
:1036B000206800F085FB0A2000F048F9D0E7000000
:1036C000020000200C00002010B5031F4FF0807492
:1036D0001C601B1F21F001011960191F024B0B60B8
:1036E000143940380A6010BDB1340008D0E9013205
:1036F00001699A60D0E901235A604A68824201D187
:1037000082684A60002202610868401E08600868FA
:1037100070470000034B036003F15C0008608020E9
:10372000106070476C210020044B036003F15C00C3
:1037300008604FF48070106070470000C8230020BC
:1037400000F108014FF0FF32C0E90112C1600161D0
:1037500000210160704700210161704730B50B689E
:103760005A1C02D000F1080202E0026904E022467D
:10377000546825689D42FAD953684B6099608A6005
:10378000516008610168491C016030BD42684A60AF
:1037900093688B6093685960916008610168491C67
:1037A00001607047502080F31188BFF34F8FBFF343
:1037B0006F8F0A494868401C486001280CD10848AE
:1037C000006810F0FF0F07D0502080F31188BFF37E
:1037D0004F8FBFF36F8FFEE770470000D4180020B3
:1037E00004ED00E00849486828B1401E486001D156
:1037F00080F311887047502080F31188BFF34F8FFA
:10380000BFF36F8FFEE70000D418002070B50028CA
:1038100027D0144DA0F108046168E868014207D17F
:10382000502080F31188BFF34F8FBFF36F8FFEE7F7
:1038300022683AB1502080F31188BFF34F8FBFF355
:103840006F8FFEE78143616000F074F9606869681A
:10385000084468602046FFF7C1FCBDE8704000F0F6
:103860006FBF70BDBC1800204FF0E0200021016147
:10387000816105494FF47A720968B1FBF2F1491E82
:1038800041610721016170472000002010B5FCF75D
:103890007FFC114910280ED300F1E02090F8F003CE
:1038A0000A78904207D2502080F31188BFF34F8FDF
:1038B000BFF36F8FFEE709480068896800F4E06095
:1038C000884207D9502080F31188BFF34F8FBFF390
:1038D0006F8FFEE710BD0000D41800200CED00E053
:1038E00010B5084B002200BF53F832401CB1521CE7
:1038F000082AF9D310BD43F8321003EBC201486027
:1039000010BD0000501B002070B515460E46044641
:10391000FFF748FF94F944100020491C01D184F8B6
:10392000440094F94510491C01D184F84500FFF783
:1039300059FFA06B28B92A46314604F1240000F053
:1039400051F82046BDE87040FFF7D8BD10B5020021
:1039500014D00F48806B38B1502080F31188BFF32A
:103960004F8FBFF36F8FFEE700F0E4F800211046A1
:10397000FFF758FA00F0E4FE002807D105494FF0A0
:1039800080500860BFF34F8FBFF36F8F10BD0000F2
:103990006818002004ED00E002498A6A0260496963
:1039A0004160704768180020014901204862704753
:1039B0006818002010B50C4650B109490968183143
:1039C000FFF7CCFE2046BDE810400121FFF72ABAE0
:1039D000502080F31188BFF34F8FBFF36F8FFEE746
:1039E0006818002070B514460D4668B10A49096888
:1039F0001831FFF7CBFE0CB14FF0FF3521462846BA
:103A0000BDE87040FFF70EBA502080F31188BFF375
:103A10004F8FBFF36F8FFEE76818002070B504006A
:103A20003ED0226DA2B1E06C884200D30146E06A2C
:103A3000884235D0012A33D11A4D2A6894420FD1D9
:103A4000502080F31188BFF34F8FBFF36F8FFEE7D5
:103A5000502080F31188BFF34F8FBFF36F8FFEE7C5
:103A6000E162A269002A02DBC1F13801A1610E4EB8
:103A700000EB8000616906EB8000814210D1201DBF
:103A8000FFF734FEE06AA969884200D9A86100EB1B
:103A9000800006EB8000211DBDE87040FFF776BE78
:103AA00070BD000068180020901B002030B587B062
:103AB0000024039405AA04A903A80494FFF72AFE8E
:103AC000DDE903010094CDE90110002315A1174899
:103AD000059A00F0DEFC164D002868631FD000F048
:103AE00091FE012809D0401C19D1502080F3118883
:103AF000BFF34F8FBFF36F8FFEE7502080F3118825
:103B0000BFF34F8FBFF36F8F4FF0FF30286301205B
:103B1000E8616C6107B0BDE8304000F045B807B01F
:103B200030BD000049444C4500000000BD30000895
:103B3000681800200248816B491C816370470000AF
:103B400068180020164810B5816B11B1012141623F
:103B500010BD002141628169124A01E0B9B1491EDC
:103B600001EB810352F82330002BF7D001EB8103E6
:103B700002EB830202F1080453685B685360A342BE
:103B800001D15B685360DA680260816110BD50202A
:103B900080F31188BFF34F8FBFF36F8FFEE70000F4
:103BA00068180020901B00201CB526490878019059
:103BB000FF20087008788DF800009DF800009DF83F
:103BC000002000F0F000904207D0502080F31188D0
:103BD000BFF34F8FBFF36F8FFEE79DF800001A4BC6
:103BE00000F0500018700720986005E09DF8002054
:103BF00052008DF80020401E9DF800201206F5D4DA
:103C00009860032807D0502080F31188BFF34F8FAE
:103C1000BFF36F8FFEE74FF4407098600198087013
:103C20000A48016841F470010160016841F0704187
:103C30000160FFF719FE00205860FCF773FA0020BE
:103C40001CBD000000E400E0D418002020ED00E0DE
:103C500010B50C4648B184420FD9502080F311882A
:103C6000BFF34F8FBFF36F8FFEE7502080F31188B3
:103C7000BFF34F8FBFF36F8FFEE70222002100F0EA
:103C800004F8002800D0846310BDF8B517460E462E
:103C9000050014D0DEB105FB06F05030FFF764FCE0
:103CA00004000AD0002084F8460004F150023B468C
:103CB000314628460094FFF731FA2046F8BD5020DF
:103CC00080F31188BFF34F8FBFF36F8FFEE70020A3
:103CD000E3E738B5049D18B153B1CAB181B120E012
:103CE000502080F31188BFF34F8FBFF36F8FFEE733
:103CF000502080F31188BFF34F8FBFF36F8FFEE723
:103D0000502080F31188BFF34F8FBFF36F8FFEE712
:103D100039B1502080F31188BFF34F8FBFF36F8FFD
:103D2000FEE750241C46012384F846302B460094BD
:103D3000FFF7F4F9204638BD70B50D46040025D0D4
:103D4000FFF730FDD4E90F20216802FB001161600C
:103D50000021A1632168A1600A46D4E90F01401E39
:103D600000FB0121E16021464FF0FF3001F8440FD4
:103D7000487004F110008DB1FFF7E2FC04F124005B
:103D8000FFF7DEFCFFF72EFD012070BD502080F311
:103D90001188BFF34F8FBFF36F8FFEE721690029B2
:103DA000F0D000F095FC0028ECD004494FF0805092
:103DB0000860BFF34F8FBFF36F8FE3E704ED00E0C0
:103DC0002DE9FF4782B01D468A464FF000080400E7
:103DD00003D0BAF1000F08D011E0502080F3118811
:103DE000BFF34F8FBFF36F8FFEE7206C38B15020C9
:103DF00080F31188BFF34F8FBFF36F8FFEE7022D63
:103E00000AD1E06B012807D0502080F31188BFF35E
:103E10004F8FBFF36F8FFEE700F066FB3F4F4FF011
:103E200000094FF0805648B9049838B1502080F30B
:103E30001188BFF34F8FBFF36F8FFEE7FFF7B2FC20
:103E4000A06BE16B884207D3022D05D00498D0B156
:103E5000B8F1000F1AD01EE02A4651462046FFF75F
:103E6000B6F8616A19B104F1240000F031FC20B108
:103E70003E60BFF34F8FBFF36F8FFFF7B3FC01209E
:103E800006B0BDE8F087FFF7ADFC22E06846FFF71B
:103E900083FD4FF00108FFF7A5FCFFF74BFEFFF78E
:103EA00081FC94F94400401C01D184F8449094F9B9
:103EB0004500401C01D184F84590FFF793FC04A90C
:103EC000684600F07FFA30B12046FFF717FB00F09C
:103ED00037FC0020D4E7FFF765FCA06BE16B88425C
:103EE00013D1FFF77FFC04F110000499FFF762FD86
:103EF0002046FFF703FB00F023FC00289ED13E6024
:103F0000BFF34F8FBFF36F8F98E7FFF76BFC20462F
:103F1000FFF7F4FA00F014FC90E7000004ED00E075
:103F20002DE9F0471F4690468946040003D0B9F1B9
:103F3000000F08D011E0502080F31188BFF34F8F9D
:103F4000BFF36F8FFEE7206C38B1502080F31188EB
:103F5000BFF34F8FBFF36F8FFEE7022F0AD1E06BE5
:103F6000012807D0502080F31188BFF34F8FBFF393
:103F70006F8FFEE7FFF78AFC5020EFF3118680F386
:103F80001188BFF34F8FBFF36F8FA06BE16B884237
:103F900006D3022F04D0002086F31188BDE8F087F5
:103FA00094F945503A4649462046FFF710F8681CF8
:103FB00004D06D1C84F845500120EDE7606A0028AC
:103FC000FAD004F1240000F083FB0028F4D0B8F10B
:103FD000000FF1D00121C8F80010EDE770B50E46D2
:103FE000040009D0206C78B1502080F31188BFF311
:103FF0004F8FBFF36F8FFEE7502080F31188BFF320
:104000004F8FBFF36F8FFEE7206848B9606838B103
:10401000502080F31188BFF34F8FBFF36F8FFEE7FF
:10402000FFF734FC5020EFF3118580F31188BFF3C4
:104030004F8FBFF36F8FA16BE06B884218D994F953
:104040004500491CA163411C04D0401C84F8450074
:1040500001200EE0606A0028FAD004F1240000F08C
:1040600037FB0028F4D0002EF2D001203060EFE7BB
:10407000002085F3118870BD2DE9F747002683B035
:104080008A46040003D0BAF1000F08D011E0502096
:1040900080F31188BFF34F8FBFF36F8FFEE7206C63
:1040A00038B1502080F31188BFF34F8FBFF36F8F6B
:1040B000FEE700F019FADFF8F4804FF000094FF046
:1040C000805748B9059838B1502080F31188BFF364
:1040D0004F8FBFF36F8FFEE7FFF764FBA56BC5B192
:1040E00051462046FEF760FF6D1EA563206950B162
:1040F00004F1100000F0ECFA28B1C8F80070BFF32A
:104100004F8FBFF36F8FFFF76DFB012006B0BDE847
:10411000F087059808B11EB106E0FFF763FB27E0C2
:104120006846FFF739FC0126FFF75CFBFFF702FD4D
:10413000FFF738FB94F94400401C01D184F8449007
:1041400094F94500401C01D184F84590FFF74AFBE3
:1041500005A9684600F036F9002820460AD0FFF786
:10416000CDF900F0EDFA2046FFF77AF80028B3D039
:104170000020CBE7FFF774F890B104F12400059913
:10418000FFF718FC2046FFF7B9F900F0D9FA00282C
:10419000A2D1C8F80070BFF34F8FBFF36F8F9BE7BA
:1041A0002046FFF7ABF900F0CBFA95E704ED00E00D
:1041B0002DE9F04790468946040003D0B9F1000F7D
:1041C00008D011E0502080F31188BFF34F8FBFF368
:1041D0006F8FFEE7206C38B1502080F31188BFF359
:1041E0004F8FBFF36F8FFEE7FFF750FB5020EFF3C9
:1041F000118680F31188BFF34F8FBFF36F8FA76BCA
:10420000F7B194F9445049462046FEF7CDFE7F1E93
:10421000A763681C04D06D1C84F84450012010E092
:1042200020690028FAD004F1100000F051FA0028AB
:10423000F4D0B8F1000FF1D00121C8F80010EDE77B
:10424000002086F31188BDE8F08700002DE9F343D4
:10425000002683B00400354609D0206C78B1502088
:1042600080F31188BFF34F8FBFF36F8FFEE75020AD
:1042700080F31188BFF34F8FBFF36F8FFEE700F01D
:1042800033F9DFF83C814FF000094FF0805748B90F
:10429000049838B1502080F31188BFF34F8FBFF3DB
:1042A0006F8FFEE7FFF77EFAA06BC8B1401EA063D8
:1042B000206810B9FFF7C4F96060206950B104F1BB
:1042C000100000F005FA28B1C8F80070BFF34F8F56
:1042D000BFF36F8FFFF786FA012005B0BDE8F083CA
:1042E000049808B166B10FE03DB1502080F3118809
:1042F000BFF34F8FBFF36F8FFEE7FFF773FA5DE0F9
:104300006846FFF749FB0126FFF76CFAFFF712FC3E
:10431000FFF748FA94F94400401C01D184F8449016
:1043200094F94500401C01D184F84590FFF75AFAF2
:1043300004A9684600F046F80028204612D0FFF78E
:10434000DDF800F0FDF92046FEF78AFF0028A9D02D
:104350009DB3FFF727FA606A50B3206B0068C0F185
:10436000380126E0FEF77CFFE0B1206838B9FFF79E
:1043700019FA606800F070F90546FFF733FA04F1A6
:1043800024000499FFF716FB2046FFF7B7F800F06A
:10439000D7F9002886D1C8F80070BFF34F8FBFF35C
:1043A0006F8F7FE72046FFF7A9F800F0C9F979E79A
:1043B00000216068FFF732FB9FE7FFE700208CE7F2
:1043C00004ED00E02DE9F0410C46050011D0C4B128
:1043D000FFF7E8F9174B5A696E682068911B471C74
:1043E00017D02F689B6A9F4219D0964217D8012494
:1043F00010E0502080F31188BFF34F8FBFF36F8F11
:10440000FEE7502080F31188BFF34F8FBFF36F8F0B
:10441000FEE70024FFF7E6F92046BDE8F081884278
:1044200005D9401A20602846FFF7B6FAF1E70020C8
:104430002060DCE7681800202DE9FF5F8346DDE996
:104440000E87994616468A469000FFF78DF80500BC
:104450001CD05C20FFF788F8040014D000202563EE
:1044600084F85900CDE90240CDE900874B46324639
:1044700051465846FEF763FE2046FEF701FD012037
:1044800004B0BDE8F09F2846FFF7C0F94FF0FF30B9
:10449000F6E7F0B585B0DDE90B640A9DA6B1DCB1A5
:1044A0005C2700972663022684F85960002604AF33
:1044B000CDE90246CDE90057FEF741FE2046FEF762
:1044C000DFFC049805B0F0BD502080F31188BFF3E5
:1044D0004F8FBFF36F8FFEE7502080F31188BFF33B
:1044E0004F8FBFF36F8FFEE70548C16919B1806B2D
:1044F00018B100207047012070470220704700006B
:1045000068180020014840697047000068180020C2
:104510002DE9F0412E4C0027A06B40B1206A401CD1
:104520002062606A00B101273846BDE8F081666903
:10453000761C666113D16068006838B1502080F342
:104540001188BFF34F8FBFF36F8FFEE76068A168DC
:104550006160A060A06A401CA062FEF74FFF206B64
:10456000DFF87080864209D36068006880B16068B7
:10457000C068C568686886420DD220632068C06A3A
:1045800000EB800158F821000128CAD90127C8E7AB
:104590004FF0FF30F1E7281DFFF7A8F8A86A18B11F
:1045A00005F11800FFF7A2F8E86AA169884200D96E
:1045B000A06100EB800108EB8100291DFFF7E6F800
:1045C000E86A2168C96A8842CED30127CCE7000097
:1045D00068180020901B002070B504004FF0000107
:1045E00033D01B4D2868844207D0502080F31188B7
:1045F000BFF34F8FBFF36F8FFEE7206D38B1401EC2
:104600002065E36CE26A9A421FD040B11DE0502061
:1046100080F31188BFF34F8FBFF36F8FFEE7201D2C
:10462000FFF764F8E06CE062C0F13800A061E06A76
:10463000A969884200D9A861064900EB800001EB16
:104640008000211DFFF7A2F80121084670BD00007F
:1046500068180020901B002070B504004FF0000087
:104660002BD0194DE16A2A68D26A914226D2A069FC
:10467000002804DB2868C06AC0F13800A061134E2E
:1046800001EB8101606906EB8101884211D1201D97
:10469000FFF72CF82868C06AE062A969884200D94F
:1046A000A86100EB800006EB8000211DFFF76EF88B
:1046B00002E02868C06AE062012070BDE16C2A68EF
:1046C000D26A9142F8D370BD68180020901B002078
:1046D00070B5C068C46854B104F118000646FFF70D
:1046E00005F8144DA86B50B13146134815E0502021
:1046F00080F31188BFF34F8FBFF36F8FFEE7201D4C
:10470000FEF7F4FFE06AA969884200D9A8610B4965
:1047100000EB800001EB8000211DFFF737F8E06A15
:104720002968C96A884202D90120686270BD0020E8
:1047300070BD00006818002018200020901B002089
:104740002DE9F0472C4D00242746A86B38B1FFF720
:1047500029F8A86B401EA863A86B40B146E0502022
:1047600080F31188BFF34F8FBFF36F8FFEE7296986
:10477000224E0120D1B3A6F5916980463068E0B1A0
:10478000F068C46804F11800FEF7B0FF201DFEF7C2
:10479000ADFFE06AA969884200D9A86100EB8001F9
:1047A00009EB8100211DFEF7F1FFE06A2968C96A63
:1047B0008842E3D3C5F82480E0E70CB1FEF71EFE83
:1047C0002C6A4CB14FEA0806FFF7A2FE00B16E62F8
:1047D000641EF9D100202862686A38B108490127AF
:1047E00038070860BFF34F8FBFF36F8FFEF7FAFFF4
:1047F0003846BDE8F0870000681800201820002027
:1048000004ED00E010B586B0FEF7A2FB114CA068E5
:10481000B8B100200390049005AA04A903A8FEF7EC
:1048200083FFDDE9032102208DE8070000230AA1B0
:104830000B48059AFFF72DFEE06010B106B001208D
:1048400010BD502080F31188BFF34F8FBFF36F8FDF
:10485000FEE70000A4180020546D72205376630018
:10486000D93400082DE9FF411E46134602000A9D77
:104870004FF0000016D0144CA768002F0FD0CDE9E0
:1048800000130292062917DAFFF72EFE02284FF0D6
:1048900000030FD000226946A068FFF791FA04B028
:1048A000BDE8F081502080F31188BFF34F8FBFF334
:1048B0006F8FFEE72A46EEE7002332466946384608
:1048C000FFF72EFBEBE70000A418002008490008C2
:1048D00000000000000000000000000000000000D8
:1048E00000020000180000000000000000000000AE
:1048F0000000000000000000010203040607080990
:10490000000000000102030464656661756C745464
:1049100061736B003449000800000020E0180000BB
:1049200028020008704B0008E0180020481F000013
:10493000542600080114320182103324F415FC04BB
:1049400004FC300910D81413F0141830180B0F049D
:10495000040F080A090909FF040A200820011F1A88
:10496000FC010A353C01293C01401AFF0109723C57
:10497000091E4429E009120C0960801AC0010114C3
:104980000910180954800C1503070F010B54070375
:104990008029DAF90182800A13801F2901094280E7
:1049A0000A13030149961FE0F0F87C3E1FF709192E
:1049B0000101562C1F3F3F7802D501000D42C0E097
:1049C000F0783C3C1E1E0E0E0E041A04470009240B
:1049D0001E1E3C3C78F0E0C056183F3F1F017EE0B1
:1049E000F0F8783801517A100A8919091D015578B3
:1049F000F8F0E0062C011F3F3F180F3D0FFFFFFCB2
:104A0000F878010638F8FCFFFF0F000811071F7F38
:104A1000FEF8E0801A8001BAC001291209102707A8
:104A20003DE0F8FE7F1F0718160103071F3F7CF8C3
:104A3000F0E0E0E0F0F8783C3C1E1E0F0F07014A62
:104A400003015B010109291458080F0F1E1E3C3C8D
:104A5000782D07477C3F1F0703011967695F2C7892
:104A6000F0F0619AE0FE2AC01019176A78A119992E
:104A7000015D2A010159FA196C390101C60F7580CF
:104A800080C0C0C080405BE0FF010A73FE40693E09
:104A9000190109F340116A073F0A747F4031073A50
:104AA000010103030301093E4001FF011B0F778051
:104AB000C0C0C08080405BFEFF010A74E040693FD7
:104AC000190109F3406A7F3E023607093E4011078B
:104AD0003A010303030101093E4001FF01636680BF
:104AE000E0F0F0306008C080F0F0F080C00A101CE8
:104AF000019DC0E0C08039190F09112509114B9D96
:104B000030F0F0E039D185F8FFFF0F000918113FB0
:104B10003F0F3F3F110118090103070F0F1E1E3CF5
:104B2000010F181E1E0F0F07032A594B8105160F80
:104B3000FFFFF805621FFFFFF00D16F0FFFF1FAB30
:104B400019D4025E0C06FF0C0F0F070101FF01FFD5
:104B500001A30D173E3E3C3801943C3C3C190C0926
:104B6000182905FF383C3E3E01961AAA0141000073
:04000005080000ED02
:00000001FF
